{
  "contractName": "ERC4907",
  "abi": [
    {
      "inputs": [
        {
          "internalType": "string",
          "name": "_name",
          "type": "string"
        },
        {
          "internalType": "string",
          "name": "_symbol",
          "type": "string"
        }
      ],
      "stateMutability": "nonpayable",
      "type": "constructor"
    },
    {
      "anonymous": false,
      "inputs": [
        {
          "indexed": true,
          "internalType": "address",
          "name": "owner",
          "type": "address"
        },
        {
          "indexed": true,
          "internalType": "address",
          "name": "approved",
          "type": "address"
        },
        {
          "indexed": true,
          "internalType": "uint256",
          "name": "tokenId",
          "type": "uint256"
        }
      ],
      "name": "Approval",
      "type": "event"
    },
    {
      "anonymous": false,
      "inputs": [
        {
          "indexed": true,
          "internalType": "address",
          "name": "owner",
          "type": "address"
        },
        {
          "indexed": true,
          "internalType": "address",
          "name": "operator",
          "type": "address"
        },
        {
          "indexed": false,
          "internalType": "bool",
          "name": "approved",
          "type": "bool"
        }
      ],
      "name": "ApprovalForAll",
      "type": "event"
    },
    {
      "anonymous": false,
      "inputs": [
        {
          "indexed": true,
          "internalType": "address",
          "name": "from",
          "type": "address"
        },
        {
          "indexed": true,
          "internalType": "address",
          "name": "to",
          "type": "address"
        },
        {
          "indexed": true,
          "internalType": "uint256",
          "name": "tokenId",
          "type": "uint256"
        }
      ],
      "name": "Transfer",
      "type": "event"
    },
    {
      "anonymous": false,
      "inputs": [
        {
          "indexed": true,
          "internalType": "uint256",
          "name": "tokenId",
          "type": "uint256"
        },
        {
          "indexed": true,
          "internalType": "address",
          "name": "user",
          "type": "address"
        },
        {
          "indexed": false,
          "internalType": "uint64",
          "name": "expires",
          "type": "uint64"
        }
      ],
      "name": "UpdateUser",
      "type": "event"
    },
    {
      "inputs": [
        {
          "internalType": "address",
          "name": "to",
          "type": "address"
        },
        {
          "internalType": "uint256",
          "name": "tokenId",
          "type": "uint256"
        }
      ],
      "name": "approve",
      "outputs": [],
      "stateMutability": "nonpayable",
      "type": "function"
    },
    {
      "inputs": [
        {
          "internalType": "address",
          "name": "owner",
          "type": "address"
        }
      ],
      "name": "balanceOf",
      "outputs": [
        {
          "internalType": "uint256",
          "name": "",
          "type": "uint256"
        }
      ],
      "stateMutability": "view",
      "type": "function"
    },
    {
      "inputs": [
        {
          "internalType": "uint256",
          "name": "tokenId",
          "type": "uint256"
        }
      ],
      "name": "getApproved",
      "outputs": [
        {
          "internalType": "address",
          "name": "",
          "type": "address"
        }
      ],
      "stateMutability": "view",
      "type": "function"
    },
    {
      "inputs": [
        {
          "internalType": "address",
          "name": "owner",
          "type": "address"
        },
        {
          "internalType": "address",
          "name": "operator",
          "type": "address"
        }
      ],
      "name": "isApprovedForAll",
      "outputs": [
        {
          "internalType": "bool",
          "name": "",
          "type": "bool"
        }
      ],
      "stateMutability": "view",
      "type": "function"
    },
    {
      "inputs": [],
      "name": "name",
      "outputs": [
        {
          "internalType": "string",
          "name": "",
          "type": "string"
        }
      ],
      "stateMutability": "view",
      "type": "function"
    },
    {
      "inputs": [
        {
          "internalType": "uint256",
          "name": "tokenId",
          "type": "uint256"
        }
      ],
      "name": "ownerOf",
      "outputs": [
        {
          "internalType": "address",
          "name": "",
          "type": "address"
        }
      ],
      "stateMutability": "view",
      "type": "function"
    },
    {
      "inputs": [
        {
          "internalType": "address",
          "name": "from",
          "type": "address"
        },
        {
          "internalType": "address",
          "name": "to",
          "type": "address"
        },
        {
          "internalType": "uint256",
          "name": "tokenId",
          "type": "uint256"
        }
      ],
      "name": "safeTransferFrom",
      "outputs": [],
      "stateMutability": "nonpayable",
      "type": "function"
    },
    {
      "inputs": [
        {
          "internalType": "address",
          "name": "from",
          "type": "address"
        },
        {
          "internalType": "address",
          "name": "to",
          "type": "address"
        },
        {
          "internalType": "uint256",
          "name": "tokenId",
          "type": "uint256"
        },
        {
          "internalType": "bytes",
          "name": "data",
          "type": "bytes"
        }
      ],
      "name": "safeTransferFrom",
      "outputs": [],
      "stateMutability": "nonpayable",
      "type": "function"
    },
    {
      "inputs": [
        {
          "internalType": "address",
          "name": "operator",
          "type": "address"
        },
        {
          "internalType": "bool",
          "name": "approved",
          "type": "bool"
        }
      ],
      "name": "setApprovalForAll",
      "outputs": [],
      "stateMutability": "nonpayable",
      "type": "function"
    },
    {
      "inputs": [],
      "name": "symbol",
      "outputs": [
        {
          "internalType": "string",
          "name": "",
          "type": "string"
        }
      ],
      "stateMutability": "view",
      "type": "function"
    },
    {
      "inputs": [
        {
          "internalType": "uint256",
          "name": "tokenId",
          "type": "uint256"
        }
      ],
      "name": "tokenURI",
      "outputs": [
        {
          "internalType": "string",
          "name": "",
          "type": "string"
        }
      ],
      "stateMutability": "view",
      "type": "function"
    },
    {
      "inputs": [
        {
          "internalType": "address",
          "name": "from",
          "type": "address"
        },
        {
          "internalType": "address",
          "name": "to",
          "type": "address"
        },
        {
          "internalType": "uint256",
          "name": "tokenId",
          "type": "uint256"
        }
      ],
      "name": "transferFrom",
      "outputs": [],
      "stateMutability": "nonpayable",
      "type": "function"
    },
    {
      "inputs": [
        {
          "internalType": "uint256",
          "name": "tokenId",
          "type": "uint256"
        },
        {
          "internalType": "address",
          "name": "user",
          "type": "address"
        },
        {
          "internalType": "uint64",
          "name": "expires",
          "type": "uint64"
        }
      ],
      "name": "setUser",
      "outputs": [],
      "stateMutability": "nonpayable",
      "type": "function"
    },
    {
      "inputs": [
        {
          "internalType": "uint256",
          "name": "tokenId",
          "type": "uint256"
        }
      ],
      "name": "userOf",
      "outputs": [
        {
          "internalType": "address",
          "name": "",
          "type": "address"
        }
      ],
      "stateMutability": "view",
      "type": "function"
    },
    {
      "inputs": [
        {
          "internalType": "uint256",
          "name": "tokenId",
          "type": "uint256"
        }
      ],
      "name": "userExpires",
      "outputs": [
        {
          "internalType": "uint256",
          "name": "",
          "type": "uint256"
        }
      ],
      "stateMutability": "view",
      "type": "function"
    },
    {
      "inputs": [
        {
          "internalType": "bytes4",
          "name": "interfaceId",
          "type": "bytes4"
        }
      ],
      "name": "supportsInterface",
      "outputs": [
        {
          "internalType": "bool",
          "name": "",
          "type": "bool"
        }
      ],
      "stateMutability": "view",
      "type": "function"
    }
  ],
  "bytecode": "0x60806040523480156200001157600080fd5b5060405162002e7538038062002e75833981810160405281019062000037919062000204565b818181600090816200004a9190620004d4565b5080600190816200005c9190620004d4565b5050505050620005bb565b6000604051905090565b600080fd5b600080fd5b600080fd5b600080fd5b6000601f19601f8301169050919050565b7f4e487b7100000000000000000000000000000000000000000000000000000000600052604160045260246000fd5b620000d08262000085565b810181811067ffffffffffffffff82111715620000f257620000f162000096565b5b80604052505050565b60006200010762000067565b9050620001158282620000c5565b919050565b600067ffffffffffffffff82111562000138576200013762000096565b5b620001438262000085565b9050602081019050919050565b60005b838110156200017057808201518184015260208101905062000153565b8381111562000180576000848401525b50505050565b60006200019d62000197846200011a565b620000fb565b905082815260208101848484011115620001bc57620001bb62000080565b5b620001c984828562000150565b509392505050565b600082601f830112620001e957620001e86200007b565b5b8151620001fb84826020860162000186565b91505092915050565b600080604083850312156200021e576200021d62000071565b5b600083015167ffffffffffffffff8111156200023f576200023e62000076565b5b6200024d85828601620001d1565b925050602083015167ffffffffffffffff81111562000271576200027062000076565b5b6200027f85828601620001d1565b9150509250929050565b600081519050919050565b7f4e487b7100000000000000000000000000000000000000000000000000000000600052602260045260246000fd5b60006002820490506001821680620002dc57607f821691505b602082108103620002f257620002f162000294565b5b50919050565b60008190508160005260206000209050919050565b60006020601f8301049050919050565b600082821b905092915050565b6000600883026200035c7fffffffffffffffffffffffffffffffffffffffffffffffffffffffffffffffff826200031d565b6200036886836200031d565b95508019841693508086168417925050509392505050565b6000819050919050565b6000819050919050565b6000620003b5620003af620003a98462000380565b6200038a565b62000380565b9050919050565b6000819050919050565b620003d18362000394565b620003e9620003e082620003bc565b8484546200032a565b825550505050565b600090565b62000400620003f1565b6200040d818484620003c6565b505050565b5b81811015620004355762000429600082620003f6565b60018101905062000413565b5050565b601f82111562000484576200044e81620002f8565b62000459846200030d565b8101602085101562000469578190505b6200048162000478856200030d565b83018262000412565b50505b505050565b600082821c905092915050565b6000620004a96000198460080262000489565b1980831691505092915050565b6000620004c4838362000496565b9150826002028217905092915050565b620004df8262000289565b67ffffffffffffffff811115620004fb57620004fa62000096565b5b620005078254620002c3565b6200051482828562000439565b600060209050601f8311600181146200054c576000841562000537578287015190505b620005438582620004b6565b865550620005b3565b601f1984166200055c86620002f8565b60005b8281101562000586578489015182556001820191506020850194506020810190506200055f565b86831015620005a65784890151620005a2601f89168262000496565b8355505b6001600288020188555050505b505050505050565b6128aa80620005cb6000396000f3fe608060405234801561001057600080fd5b50600436106101005760003560e01c80638fc88c4811610097578063c2f1f14a11610066578063c2f1f14a146102bd578063c87b56dd146102ed578063e030565e1461031d578063e985e9c51461033957610100565b80638fc88c481461023757806395d89b4114610267578063a22cb46514610285578063b88d4fde146102a157610100565b806323b872dd116100d357806323b872dd1461019f57806342842e0e146101bb5780636352211e146101d757806370a082311461020757610100565b806301ffc9a71461010557806306fdde0314610135578063081812fc14610153578063095ea7b314610183575b600080fd5b61011f600480360381019061011a9190611934565b610369565b60405161012c919061197c565b60405180910390f35b61013d6103e3565b60405161014a9190611a30565b60405180910390f35b61016d60048036038101906101689190611a88565b610475565b60405161017a9190611af6565b60405180910390f35b61019d60048036038101906101989190611b3d565b6104bb565b005b6101b960048036038101906101b49190611b7d565b6105d2565b005b6101d560048036038101906101d09190611b7d565b610632565b005b6101f160048036038101906101ec9190611a88565b610652565b6040516101fe9190611af6565b60405180910390f35b610221600480360381019061021c9190611bd0565b610703565b60405161022e9190611c0c565b60405180910390f35b610251600480360381019061024c9190611a88565b6107ba565b60405161025e9190611c0c565b60405180910390f35b61026f6107f8565b60405161027c9190611a30565b60405180910390f35b61029f600480360381019061029a9190611c53565b61088a565b005b6102bb60048036038101906102b69190611dc8565b6108a0565b005b6102d760048036038101906102d29190611a88565b610902565b6040516102e49190611af6565b60405180910390f35b61030760048036038101906103029190611a88565b610987565b6040516103149190611a30565b60405180910390f35b61033760048036038101906103329190611e8b565b610a99565b005b610353600480360381019061034e9190611ede565b610bbc565b604051610360919061197c565b60405180910390f35b60007fad092b5c000000000000000000000000000000000000000000000000000000007bffffffffffffffffffffffffffffffffffffffffffffffffffffffff1916827bffffffffffffffffffffffffffffffffffffffffffffffffffffffff191614806103dc57506103db82610c50565b5b9050919050565b6060600080546103f290611f4d565b80601f016020809104026020016040519081016040528092919081815260200182805461041e90611f4d565b801561046b5780601f106104405761010080835404028352916020019161046b565b820191906000526020600020905b81548152906001019060200180831161044e57829003601f168201915b5050505050905090565b600061048082610d32565b6004600083815260200190815260200160002060009054906101000a900473ffffffffffffffffffffffffffffffffffffffff169050919050565b60006104c682610652565b90508073ffffffffffffffffffffffffffffffffffffffff168373ffffffffffffffffffffffffffffffffffffffff1603610536576040517f08c379a000000000000000000000000000000000000000000000000000000000815260040161052d90611ff0565b60405180910390fd5b8073ffffffffffffffffffffffffffffffffffffffff16610555610d7d565b73ffffffffffffffffffffffffffffffffffffffff16148061058457506105838161057e610d7d565b610bbc565b5b6105c3576040517f08c379a00000000000000000000000000000000000000000000000000000000081526004016105ba90612082565b60405180910390fd5b6105cd8383610d85565b505050565b6105e36105dd610d7d565b82610e3e565b610622576040517f08c379a000000000000000000000000000000000000000000000000000000000815260040161061990612114565b60405180910390fd5b61062d838383610ed3565b505050565b61064d838383604051806020016040528060008152506108a0565b505050565b6000806002600084815260200190815260200160002060009054906101000a900473ffffffffffffffffffffffffffffffffffffffff169050600073ffffffffffffffffffffffffffffffffffffffff168173ffffffffffffffffffffffffffffffffffffffff16036106fa576040517f08c379a00000000000000000000000000000000000000000000000000000000081526004016106f190612180565b60405180910390fd5b80915050919050565b60008073ffffffffffffffffffffffffffffffffffffffff168273ffffffffffffffffffffffffffffffffffffffff1603610773576040517f08c379a000000000000000000000000000000000000000000000000000000000815260040161076a90612212565b60405180910390fd5b600360008373ffffffffffffffffffffffffffffffffffffffff1673ffffffffffffffffffffffffffffffffffffffff168152602001908152602001600020549050919050565b60006007600083815260200190815260200160002060000160149054906101000a900467ffffffffffffffff1667ffffffffffffffff169050919050565b60606001805461080790611f4d565b80601f016020809104026020016040519081016040528092919081815260200182805461083390611f4d565b80156108805780601f1061085557610100808354040283529160200191610880565b820191906000526020600020905b81548152906001019060200180831161086357829003601f168201915b5050505050905090565b61089c610895610d7d565b8383611139565b5050565b6108b16108ab610d7d565b83610e3e565b6108f0576040517f08c379a00000000000000000000000000000000000000000000000000000000081526004016108e790612114565b60405180910390fd5b6108fc848484846112a5565b50505050565b6000426007600084815260200190815260200160002060000160149054906101000a900467ffffffffffffffff1667ffffffffffffffff161061097d576007600083815260200190815260200160002060000160009054906101000a900473ffffffffffffffffffffffffffffffffffffffff169050610982565b600090505b919050565b606061099282610d32565b60006006600084815260200190815260200160002080546109b290611f4d565b80601f01602080910402602001604051908101604052809291908181526020018280546109de90611f4d565b8015610a2b5780601f10610a0057610100808354040283529160200191610a2b565b820191906000526020600020905b815481529060010190602001808311610a0e57829003601f168201915b505050505090506000610a3c611301565b90506000815103610a51578192505050610a94565b600082511115610a86578082604051602001610a6e92919061226e565b60405160208183030381529060405292505050610a94565b610a8f84611318565b925050505b919050565b610aa33384610e3e565b610ae2576040517f08c379a0000000000000000000000000000000000000000000000000000000008152600401610ad990612304565b60405180910390fd5b6000600760008581526020019081526020016000209050828160000160006101000a81548173ffffffffffffffffffffffffffffffffffffffff021916908373ffffffffffffffffffffffffffffffffffffffff160217905550818160000160146101000a81548167ffffffffffffffff021916908367ffffffffffffffff1602179055508273ffffffffffffffffffffffffffffffffffffffff16847f4e06b4e7000e659094299b3533b47b6aa8ad048e95e872d23d1f4ee55af89cfe84604051610bae9190612333565b60405180910390a350505050565b6000600560008473ffffffffffffffffffffffffffffffffffffffff1673ffffffffffffffffffffffffffffffffffffffff16815260200190815260200160002060008373ffffffffffffffffffffffffffffffffffffffff1673ffffffffffffffffffffffffffffffffffffffff16815260200190815260200160002060009054906101000a900460ff16905092915050565b60007f80ac58cd000000000000000000000000000000000000000000000000000000007bffffffffffffffffffffffffffffffffffffffffffffffffffffffff1916827bffffffffffffffffffffffffffffffffffffffffffffffffffffffff19161480610d1b57507f5b5e139f000000000000000000000000000000000000000000000000000000007bffffffffffffffffffffffffffffffffffffffffffffffffffffffff1916827bffffffffffffffffffffffffffffffffffffffffffffffffffffffff1916145b80610d2b5750610d2a82611380565b5b9050919050565b610d3b816113ea565b610d7a576040517f08c379a0000000000000000000000000000000000000000000000000000000008152600401610d7190612180565b60405180910390fd5b50565b600033905090565b816004600083815260200190815260200160002060006101000a81548173ffffffffffffffffffffffffffffffffffffffff021916908373ffffffffffffffffffffffffffffffffffffffff160217905550808273ffffffffffffffffffffffffffffffffffffffff16610df883610652565b73ffffffffffffffffffffffffffffffffffffffff167f8c5be1e5ebec7d5bd14f71427d1e84f3dd0314c0f7b2291e5b200ac8c7c3b92560405160405180910390a45050565b600080610e4a83610652565b90508073ffffffffffffffffffffffffffffffffffffffff168473ffffffffffffffffffffffffffffffffffffffff161480610e8c5750610e8b8185610bbc565b5b80610eca57508373ffffffffffffffffffffffffffffffffffffffff16610eb284610475565b73ffffffffffffffffffffffffffffffffffffffff16145b91505092915050565b8273ffffffffffffffffffffffffffffffffffffffff16610ef382610652565b73ffffffffffffffffffffffffffffffffffffffff1614610f49576040517f08c379a0000000000000000000000000000000000000000000000000000000008152600401610f40906123c0565b60405180910390fd5b600073ffffffffffffffffffffffffffffffffffffffff168273ffffffffffffffffffffffffffffffffffffffff1603610fb8576040517f08c379a0000000000000000000000000000000000000000000000000000000008152600401610faf90612452565b60405180910390fd5b610fc3838383611456565b610fce600082610d85565b6001600360008573ffffffffffffffffffffffffffffffffffffffff1673ffffffffffffffffffffffffffffffffffffffff168152602001908152602001600020600082825461101e91906124a1565b925050819055506001600360008473ffffffffffffffffffffffffffffffffffffffff1673ffffffffffffffffffffffffffffffffffffffff168152602001908152602001600020600082825461107591906124d5565b92505081905550816002600083815260200190815260200160002060006101000a81548173ffffffffffffffffffffffffffffffffffffffff021916908373ffffffffffffffffffffffffffffffffffffffff160217905550808273ffffffffffffffffffffffffffffffffffffffff168473ffffffffffffffffffffffffffffffffffffffff167fddf252ad1be2c89b69c2b068fc378daa952ba7f163c4a11628f55a4df523b3ef60405160405180910390a46111348383836115b4565b505050565b8173ffffffffffffffffffffffffffffffffffffffff168373ffffffffffffffffffffffffffffffffffffffff16036111a7576040517f08c379a000000000000000000000000000000000000000000000000000000000815260040161119e90612577565b60405180910390fd5b80600560008573ffffffffffffffffffffffffffffffffffffffff1673ffffffffffffffffffffffffffffffffffffffff16815260200190815260200160002060008473ffffffffffffffffffffffffffffffffffffffff1673ffffffffffffffffffffffffffffffffffffffff16815260200190815260200160002060006101000a81548160ff0219169083151502179055508173ffffffffffffffffffffffffffffffffffffffff168373ffffffffffffffffffffffffffffffffffffffff167f17307eab39ab6107e8899845ad3d59bd9653f200f220920489ca2b5937696c3183604051611298919061197c565b60405180910390a3505050565b6112b0848484610ed3565b6112bc848484846115b9565b6112fb576040517f08c379a00000000000000000000000000000000000000000000000000000000081526004016112f290612609565b60405180910390fd5b50505050565b606060405180602001604052806000815250905090565b606061132382610d32565b600061132d611301565b9050600081511161134d5760405180602001604052806000815250611378565b8061135784611740565b60405160200161136892919061226e565b6040516020818303038152906040525b915050919050565b60007f01ffc9a7000000000000000000000000000000000000000000000000000000007bffffffffffffffffffffffffffffffffffffffffffffffffffffffff1916827bffffffffffffffffffffffffffffffffffffffffffffffffffffffff1916149050919050565b60008073ffffffffffffffffffffffffffffffffffffffff166002600084815260200190815260200160002060009054906101000a900473ffffffffffffffffffffffffffffffffffffffff1673ffffffffffffffffffffffffffffffffffffffff1614159050919050565b6114618383836118a0565b8173ffffffffffffffffffffffffffffffffffffffff168373ffffffffffffffffffffffffffffffffffffffff16141580156115005750600073ffffffffffffffffffffffffffffffffffffffff166007600083815260200190815260200160002060000160009054906101000a900473ffffffffffffffffffffffffffffffffffffffff1673ffffffffffffffffffffffffffffffffffffffff1614155b156115af5760076000828152602001908152602001600020600080820160006101000a81549073ffffffffffffffffffffffffffffffffffffffff02191690556000820160146101000a81549067ffffffffffffffff02191690555050600073ffffffffffffffffffffffffffffffffffffffff16817f4e06b4e7000e659094299b3533b47b6aa8ad048e95e872d23d1f4ee55af89cfe60006040516115a6919061266e565b60405180910390a35b505050565b505050565b60006115da8473ffffffffffffffffffffffffffffffffffffffff166118a5565b15611733578373ffffffffffffffffffffffffffffffffffffffff1663150b7a02611603610d7d565b8786866040518563ffffffff1660e01b815260040161162594939291906126de565b6020604051808303816000875af192505050801561166157506040513d601f19601f8201168201806040525081019061165e919061273f565b60015b6116e3573d8060008114611691576040519150601f19603f3d011682016040523d82523d6000602084013e611696565b606091505b5060008151036116db576040517f08c379a00000000000000000000000000000000000000000000000000000000081526004016116d290612609565b60405180910390fd5b805181602001fd5b63150b7a0260e01b7bffffffffffffffffffffffffffffffffffffffffffffffffffffffff1916817bffffffffffffffffffffffffffffffffffffffffffffffffffffffff191614915050611738565b600190505b949350505050565b606060008203611787576040518060400160405280600181526020017f3000000000000000000000000000000000000000000000000000000000000000815250905061189b565b600082905060005b600082146117b95780806117a29061276c565b915050600a826117b291906127e3565b915061178f565b60008167ffffffffffffffff8111156117d5576117d4611c9d565b5b6040519080825280601f01601f1916602001820160405280156118075781602001600182028036833780820191505090505b5090505b600085146118945760018261182091906124a1565b9150600a8561182f9190612814565b603061183b91906124d5565b60f81b81838151811061185157611850612845565b5b60200101907effffffffffffffffffffffffffffffffffffffffffffffffffffffffffffff1916908160001a905350600a8561188d91906127e3565b945061180b565b8093505050505b919050565b505050565b6000808273ffffffffffffffffffffffffffffffffffffffff163b119050919050565b6000604051905090565b600080fd5b600080fd5b60007fffffffff0000000000000000000000000000000000000000000000000000000082169050919050565b611911816118dc565b811461191c57600080fd5b50565b60008135905061192e81611908565b92915050565b60006020828403121561194a576119496118d2565b5b60006119588482850161191f565b91505092915050565b60008115159050919050565b61197681611961565b82525050565b6000602082019050611991600083018461196d565b92915050565b600081519050919050565b600082825260208201905092915050565b60005b838110156119d15780820151818401526020810190506119b6565b838111156119e0576000848401525b50505050565b6000601f19601f8301169050919050565b6000611a0282611997565b611a0c81856119a2565b9350611a1c8185602086016119b3565b611a25816119e6565b840191505092915050565b60006020820190508181036000830152611a4a81846119f7565b905092915050565b6000819050919050565b611a6581611a52565b8114611a7057600080fd5b50565b600081359050611a8281611a5c565b92915050565b600060208284031215611a9e57611a9d6118d2565b5b6000611aac84828501611a73565b91505092915050565b600073ffffffffffffffffffffffffffffffffffffffff82169050919050565b6000611ae082611ab5565b9050919050565b611af081611ad5565b82525050565b6000602082019050611b0b6000830184611ae7565b92915050565b611b1a81611ad5565b8114611b2557600080fd5b50565b600081359050611b3781611b11565b92915050565b60008060408385031215611b5457611b536118d2565b5b6000611b6285828601611b28565b9250506020611b7385828601611a73565b9150509250929050565b600080600060608486031215611b9657611b956118d2565b5b6000611ba486828701611b28565b9350506020611bb586828701611b28565b9250506040611bc686828701611a73565b9150509250925092565b600060208284031215611be657611be56118d2565b5b6000611bf484828501611b28565b91505092915050565b611c0681611a52565b82525050565b6000602082019050611c216000830184611bfd565b92915050565b611c3081611961565b8114611c3b57600080fd5b50565b600081359050611c4d81611c27565b92915050565b60008060408385031215611c6a57611c696118d2565b5b6000611c7885828601611b28565b9250506020611c8985828601611c3e565b9150509250929050565b600080fd5b600080fd5b7f4e487b7100000000000000000000000000000000000000000000000000000000600052604160045260246000fd5b611cd5826119e6565b810181811067ffffffffffffffff82111715611cf457611cf3611c9d565b5b80604052505050565b6000611d076118c8565b9050611d138282611ccc565b919050565b600067ffffffffffffffff821115611d3357611d32611c9d565b5b611d3c826119e6565b9050602081019050919050565b82818337600083830152505050565b6000611d6b611d6684611d18565b611cfd565b905082815260208101848484011115611d8757611d86611c98565b5b611d92848285611d49565b509392505050565b600082601f830112611daf57611dae611c93565b5b8135611dbf848260208601611d58565b91505092915050565b60008060008060808587031215611de257611de16118d2565b5b6000611df087828801611b28565b9450506020611e0187828801611b28565b9350506040611e1287828801611a73565b925050606085013567ffffffffffffffff811115611e3357611e326118d7565b5b611e3f87828801611d9a565b91505092959194509250565b600067ffffffffffffffff82169050919050565b611e6881611e4b565b8114611e7357600080fd5b50565b600081359050611e8581611e5f565b92915050565b600080600060608486031215611ea457611ea36118d2565b5b6000611eb286828701611a73565b9350506020611ec386828701611b28565b9250506040611ed486828701611e76565b9150509250925092565b60008060408385031215611ef557611ef46118d2565b5b6000611f0385828601611b28565b9250506020611f1485828601611b28565b9150509250929050565b7f4e487b7100000000000000000000000000000000000000000000000000000000600052602260045260246000fd5b60006002820490506001821680611f6557607f821691505b602082108103611f7857611f77611f1e565b5b50919050565b7f4552433732313a20617070726f76616c20746f2063757272656e74206f776e6560008201527f7200000000000000000000000000000000000000000000000000000000000000602082015250565b6000611fda6021836119a2565b9150611fe582611f7e565b604082019050919050565b6000602082019050818103600083015261200981611fcd565b9050919050565b7f4552433732313a20617070726f76652063616c6c6572206973206e6f7420746f60008201527f6b656e206f776e6572206e6f7220617070726f76656420666f7220616c6c0000602082015250565b600061206c603e836119a2565b915061207782612010565b604082019050919050565b6000602082019050818103600083015261209b8161205f565b9050919050565b7f4552433732313a2063616c6c6572206973206e6f7420746f6b656e206f776e6560008201527f72206e6f7220617070726f766564000000000000000000000000000000000000602082015250565b60006120fe602e836119a2565b9150612109826120a2565b604082019050919050565b6000602082019050818103600083015261212d816120f1565b9050919050565b7f4552433732313a20696e76616c696420746f6b656e2049440000000000000000600082015250565b600061216a6018836119a2565b915061217582612134565b602082019050919050565b600060208201905081810360008301526121998161215d565b9050919050565b7f4552433732313a2061646472657373207a65726f206973206e6f74206120766160008201527f6c6964206f776e65720000000000000000000000000000000000000000000000602082015250565b60006121fc6029836119a2565b9150612207826121a0565b604082019050919050565b6000602082019050818103600083015261222b816121ef565b9050919050565b600081905092915050565b600061224882611997565b6122528185612232565b93506122628185602086016119b3565b80840191505092915050565b600061227a828561223d565b9150612286828461223d565b91508190509392505050565b7f4552433732313a207472616e736665722063616c6c6572206973206e6f74206f60008201527f776e6572206e6f7220617070726f766564000000000000000000000000000000602082015250565b60006122ee6031836119a2565b91506122f982612292565b604082019050919050565b6000602082019050818103600083015261231d816122e1565b9050919050565b61232d81611e4b565b82525050565b60006020820190506123486000830184612324565b92915050565b7f4552433732313a207472616e736665722066726f6d20696e636f72726563742060008201527f6f776e6572000000000000000000000000000000000000000000000000000000602082015250565b60006123aa6025836119a2565b91506123b58261234e565b604082019050919050565b600060208201905081810360008301526123d98161239d565b9050919050565b7f4552433732313a207472616e7366657220746f20746865207a65726f2061646460008201527f7265737300000000000000000000000000000000000000000000000000000000602082015250565b600061243c6024836119a2565b9150612447826123e0565b604082019050919050565b6000602082019050818103600083015261246b8161242f565b9050919050565b7f4e487b7100000000000000000000000000000000000000000000000000000000600052601160045260246000fd5b60006124ac82611a52565b91506124b783611a52565b9250828210156124ca576124c9612472565b5b828203905092915050565b60006124e082611a52565b91506124eb83611a52565b9250827fffffffffffffffffffffffffffffffffffffffffffffffffffffffffffffffff038211156125205761251f612472565b5b828201905092915050565b7f4552433732313a20617070726f766520746f2063616c6c657200000000000000600082015250565b60006125616019836119a2565b915061256c8261252b565b602082019050919050565b6000602082019050818103600083015261259081612554565b9050919050565b7f4552433732313a207472616e7366657220746f206e6f6e20455243373231526560008201527f63656976657220696d706c656d656e7465720000000000000000000000000000602082015250565b60006125f36032836119a2565b91506125fe82612597565b604082019050919050565b60006020820190508181036000830152612622816125e6565b9050919050565b6000819050919050565b6000819050919050565b600061265861265361264e84612629565b612633565b611e4b565b9050919050565b6126688161263d565b82525050565b6000602082019050612683600083018461265f565b92915050565b600081519050919050565b600082825260208201905092915050565b60006126b082612689565b6126ba8185612694565b93506126ca8185602086016119b3565b6126d3816119e6565b840191505092915050565b60006080820190506126f36000830187611ae7565b6127006020830186611ae7565b61270d6040830185611bfd565b818103606083015261271f81846126a5565b905095945050505050565b60008151905061273981611908565b92915050565b600060208284031215612755576127546118d2565b5b60006127638482850161272a565b91505092915050565b600061277782611a52565b91507fffffffffffffffffffffffffffffffffffffffffffffffffffffffffffffffff82036127a9576127a8612472565b5b600182019050919050565b7f4e487b7100000000000000000000000000000000000000000000000000000000600052601260045260246000fd5b60006127ee82611a52565b91506127f983611a52565b925082612809576128086127b4565b5b828204905092915050565b600061281f82611a52565b915061282a83611a52565b92508261283a576128396127b4565b5b828206905092915050565b7f4e487b7100000000000000000000000000000000000000000000000000000000600052603260045260246000fdfea2646970667358221220d1f0de546a67d4469594a925034148f22cddd0b7abf6a13b71673b8b9480d30064736f6c634300080f0033",
  "immutableReferences": {},
  "source": "// SPDX-License-Identifier: MIT\n\npragma solidity >=0.4.22 <0.9.0;\n\nimport \"./IERC4907.sol\";\nimport \"@openzeppelin/contracts/token/ERC721/extensions/ERC721URIStorage.sol\";\n\ncontract ERC4907 is ERC721URIStorage, IERC4907 {\n  struct UserInfo{\n    address user;\n    uint64 expire;\n  }\n\n  mapping(uint256 => UserInfo)internal _users;  //mapping de la estructura para ver info\n\n  constructor(string memory _name, string memory _symbol) ERC721(_name, _symbol){\n\n  }\n\n  //virtual se puede anular la funcion y sobreescribir una vez heradado este contratos\n  //override anula la funcion setUser de la interfaz\n\n  function setUser(uint256 tokenId, address user, uint64 expires) public virtual override{\n    require(\n      //Devuelve si operator tiene permiso para administrar todos los activos de owner.\n      _isApprovedOrOwner(msg.sender, tokenId),\n      \"ERC721: transfer caller is not owner nor approved\"\n    );\n    \n    \n    UserInfo storage info = _users[tokenId]; //mapping\n    info.user = user; //seteo el usuario pasado como parametro en la funcion setUser\n    info.expire = expires; //seteo la expiracion del arrendimiento del nft\n    emit UpdateUser(tokenId, user, expires);\n\n\n  }\n  //fecha de vencimiento\n  function userOf(uint256 tokenId) public view virtual returns(address)\n  {\n    if((_users[tokenId].expire >=block.timestamp)) //mapping verifica la fecha de expiracion\n    {\n      return _users[tokenId].user; //me retorna la info del user\n\n    }else{\n      return address(0);\n\n    }\n\n  }\n  //espiracion del arrendamiento del contrato  devolvera la fecha de caducidad \n  function userExpires(uint256 tokenId) public virtual override view returns(uint256){\n    return _users[tokenId].expire;\n\n  }\n\n  //verificar que es un standar erc4907 interfaz y \n  //Interfaz de soporte\n  //interfaceId sabe si nuestro nft es erc4907\n  /// @dev See {IERC165-supportsInterface}.\n  function supportsInterface(bytes4 interfaceId)\n    public\n    view\n    virtual\n    override\n    returns (bool)\n  {\n    return\n      interfaceId == type(IERC4907).interfaceId ||\n      super.supportsInterface(interfaceId);\n  }\n\n  //evento cada vez que cambia de usuario el nft se hace transferencia funcion transfer\n  //funcion interna solo puede ser llamada dentro del contratp\n  //_beforeTokenTransfer se anula de ERC721 heradado\n  function _beforeTokenTransfer(address from, address to, uint256 tokenId) internal virtual override{\n    super._beforeTokenTransfer(from, to, tokenId);\n    //me aseguro que estoy transfieriendo el nft a otra persona\n    if(from != to && _users[tokenId].user !=address(0)){\n      delete _users[tokenId]; //elimina la informacion anterior alquiler\n      //emite un evento y devuelve los nuevos datos\n      emit UpdateUser(tokenId, address(0), 0);\n    }\n  }\n\n}\n",
  "sourcePath": "C:\\NftErc4907\\rentable\\contracts\\ERC4907.sol",
  "compiler": {
    "name": "solc",
    "version": "0.8.15+commit.e14f2714.Emscripten.clang"
  },
  "schemaVersion": "3.4.9",
  "updatedAt": "2022-08-24T21:05:30.879Z",
  "devdoc": {
    "kind": "dev",
    "methods": {
      "approve(address,uint256)": {
        "details": "See {IERC721-approve}."
      },
      "balanceOf(address)": {
        "details": "See {IERC721-balanceOf}."
      },
      "getApproved(uint256)": {
        "details": "See {IERC721-getApproved}."
      },
      "isApprovedForAll(address,address)": {
        "details": "See {IERC721-isApprovedForAll}."
      },
      "name()": {
        "details": "See {IERC721Metadata-name}."
      },
      "ownerOf(uint256)": {
        "details": "See {IERC721-ownerOf}."
      },
      "safeTransferFrom(address,address,uint256)": {
        "details": "See {IERC721-safeTransferFrom}."
      },
      "safeTransferFrom(address,address,uint256,bytes)": {
        "details": "See {IERC721-safeTransferFrom}."
      },
      "setApprovalForAll(address,bool)": {
        "details": "See {IERC721-setApprovalForAll}."
      },
      "setUser(uint256,address,uint64)": {
        "details": "The zero address indicates there is no user  Throws if `tokenId` is not valid NFT",
        "params": {
          "expires": "UNIX timestamp, The new user could use the NFT before expires",
          "user": "The new user of the NFT"
        }
      },
      "supportsInterface(bytes4)": {
        "details": "See {IERC165-supportsInterface}."
      },
      "symbol()": {
        "details": "See {IERC721Metadata-symbol}."
      },
      "tokenURI(uint256)": {
        "details": "See {IERC721Metadata-tokenURI}."
      },
      "transferFrom(address,address,uint256)": {
        "details": "See {IERC721-transferFrom}."
      },
      "userExpires(uint256)": {
        "details": "The zero value indicates that there is no user ",
        "params": {
          "tokenId": "The NFT to get the user expires for"
        },
        "returns": {
          "_0": "The user expires for this NFT"
        }
      },
      "userOf(uint256)": {
        "details": "The zero address indicates that there is no user or the user is expired",
        "params": {
          "tokenId": "The NFT to get the user address for"
        },
        "returns": {
          "_0": "The user address for this NFT"
        }
      }
    },
    "version": 1
  },
  "userdoc": {
    "events": {
      "UpdateUser(uint256,address,uint64)": {
        "notice": "Emitted when the `user` of an NFT or the `expires` of the `user` is changed The zero address for user indicates that there is no user address"
      }
    },
    "kind": "user",
    "methods": {
      "setUser(uint256,address,uint64)": {
        "notice": "set the user and expires of a NFT"
      },
      "userExpires(uint256)": {
        "notice": "Get the user expires of an NFT"
      },
      "userOf(uint256)": {
        "notice": "Get the user address of an NFT"
      }
    },
    "version": 1
  }
}