{
  "contractName": "Rent",
  "abi": [
    {
      "inputs": [],
      "stateMutability": "nonpayable",
      "type": "constructor"
    },
    {
      "anonymous": false,
      "inputs": [
        {
          "indexed": true,
          "internalType": "address",
          "name": "owner",
          "type": "address"
        },
        {
          "indexed": true,
          "internalType": "address",
          "name": "approved",
          "type": "address"
        },
        {
          "indexed": true,
          "internalType": "uint256",
          "name": "tokenId",
          "type": "uint256"
        }
      ],
      "name": "Approval",
      "type": "event"
    },
    {
      "anonymous": false,
      "inputs": [
        {
          "indexed": true,
          "internalType": "address",
          "name": "owner",
          "type": "address"
        },
        {
          "indexed": true,
          "internalType": "address",
          "name": "operator",
          "type": "address"
        },
        {
          "indexed": false,
          "internalType": "bool",
          "name": "approved",
          "type": "bool"
        }
      ],
      "name": "ApprovalForAll",
      "type": "event"
    },
    {
      "anonymous": false,
      "inputs": [
        {
          "indexed": true,
          "internalType": "address",
          "name": "previousOwner",
          "type": "address"
        },
        {
          "indexed": true,
          "internalType": "address",
          "name": "newOwner",
          "type": "address"
        }
      ],
      "name": "OwnershipTransferred",
      "type": "event"
    },
    {
      "anonymous": false,
      "inputs": [
        {
          "indexed": true,
          "internalType": "address",
          "name": "from",
          "type": "address"
        },
        {
          "indexed": true,
          "internalType": "address",
          "name": "to",
          "type": "address"
        },
        {
          "indexed": true,
          "internalType": "uint256",
          "name": "tokenId",
          "type": "uint256"
        }
      ],
      "name": "Transfer",
      "type": "event"
    },
    {
      "anonymous": false,
      "inputs": [
        {
          "indexed": true,
          "internalType": "uint256",
          "name": "tokenId",
          "type": "uint256"
        },
        {
          "indexed": true,
          "internalType": "address",
          "name": "user",
          "type": "address"
        },
        {
          "indexed": false,
          "internalType": "uint64",
          "name": "expires",
          "type": "uint64"
        }
      ],
      "name": "UpdateUser",
      "type": "event"
    },
    {
      "inputs": [
        {
          "internalType": "address",
          "name": "to",
          "type": "address"
        },
        {
          "internalType": "uint256",
          "name": "tokenId",
          "type": "uint256"
        }
      ],
      "name": "approve",
      "outputs": [],
      "stateMutability": "nonpayable",
      "type": "function"
    },
    {
      "inputs": [
        {
          "internalType": "address",
          "name": "owner",
          "type": "address"
        }
      ],
      "name": "balanceOf",
      "outputs": [
        {
          "internalType": "uint256",
          "name": "",
          "type": "uint256"
        }
      ],
      "stateMutability": "view",
      "type": "function"
    },
    {
      "inputs": [
        {
          "internalType": "uint256",
          "name": "tokenId",
          "type": "uint256"
        }
      ],
      "name": "getApproved",
      "outputs": [
        {
          "internalType": "address",
          "name": "",
          "type": "address"
        }
      ],
      "stateMutability": "view",
      "type": "function"
    },
    {
      "inputs": [
        {
          "internalType": "address",
          "name": "owner",
          "type": "address"
        },
        {
          "internalType": "address",
          "name": "operator",
          "type": "address"
        }
      ],
      "name": "isApprovedForAll",
      "outputs": [
        {
          "internalType": "bool",
          "name": "",
          "type": "bool"
        }
      ],
      "stateMutability": "view",
      "type": "function"
    },
    {
      "inputs": [],
      "name": "name",
      "outputs": [
        {
          "internalType": "string",
          "name": "",
          "type": "string"
        }
      ],
      "stateMutability": "view",
      "type": "function"
    },
    {
      "inputs": [],
      "name": "owner",
      "outputs": [
        {
          "internalType": "address",
          "name": "",
          "type": "address"
        }
      ],
      "stateMutability": "view",
      "type": "function"
    },
    {
      "inputs": [
        {
          "internalType": "uint256",
          "name": "tokenId",
          "type": "uint256"
        }
      ],
      "name": "ownerOf",
      "outputs": [
        {
          "internalType": "address",
          "name": "",
          "type": "address"
        }
      ],
      "stateMutability": "view",
      "type": "function"
    },
    {
      "inputs": [],
      "name": "renounceOwnership",
      "outputs": [],
      "stateMutability": "nonpayable",
      "type": "function"
    },
    {
      "inputs": [
        {
          "internalType": "address",
          "name": "from",
          "type": "address"
        },
        {
          "internalType": "address",
          "name": "to",
          "type": "address"
        },
        {
          "internalType": "uint256",
          "name": "tokenId",
          "type": "uint256"
        }
      ],
      "name": "safeTransferFrom",
      "outputs": [],
      "stateMutability": "nonpayable",
      "type": "function"
    },
    {
      "inputs": [
        {
          "internalType": "address",
          "name": "from",
          "type": "address"
        },
        {
          "internalType": "address",
          "name": "to",
          "type": "address"
        },
        {
          "internalType": "uint256",
          "name": "tokenId",
          "type": "uint256"
        },
        {
          "internalType": "bytes",
          "name": "data",
          "type": "bytes"
        }
      ],
      "name": "safeTransferFrom",
      "outputs": [],
      "stateMutability": "nonpayable",
      "type": "function"
    },
    {
      "inputs": [
        {
          "internalType": "address",
          "name": "operator",
          "type": "address"
        },
        {
          "internalType": "bool",
          "name": "approved",
          "type": "bool"
        }
      ],
      "name": "setApprovalForAll",
      "outputs": [],
      "stateMutability": "nonpayable",
      "type": "function"
    },
    {
      "inputs": [
        {
          "internalType": "uint256",
          "name": "tokenId",
          "type": "uint256"
        },
        {
          "internalType": "address",
          "name": "user",
          "type": "address"
        },
        {
          "internalType": "uint64",
          "name": "expires",
          "type": "uint64"
        }
      ],
      "name": "setUser",
      "outputs": [],
      "stateMutability": "nonpayable",
      "type": "function"
    },
    {
      "inputs": [
        {
          "internalType": "bytes4",
          "name": "interfaceId",
          "type": "bytes4"
        }
      ],
      "name": "supportsInterface",
      "outputs": [
        {
          "internalType": "bool",
          "name": "",
          "type": "bool"
        }
      ],
      "stateMutability": "view",
      "type": "function"
    },
    {
      "inputs": [],
      "name": "symbol",
      "outputs": [
        {
          "internalType": "string",
          "name": "",
          "type": "string"
        }
      ],
      "stateMutability": "view",
      "type": "function"
    },
    {
      "inputs": [
        {
          "internalType": "uint256",
          "name": "tokenId",
          "type": "uint256"
        }
      ],
      "name": "tokenURI",
      "outputs": [
        {
          "internalType": "string",
          "name": "",
          "type": "string"
        }
      ],
      "stateMutability": "view",
      "type": "function"
    },
    {
      "inputs": [
        {
          "internalType": "address",
          "name": "from",
          "type": "address"
        },
        {
          "internalType": "address",
          "name": "to",
          "type": "address"
        },
        {
          "internalType": "uint256",
          "name": "tokenId",
          "type": "uint256"
        }
      ],
      "name": "transferFrom",
      "outputs": [],
      "stateMutability": "nonpayable",
      "type": "function"
    },
    {
      "inputs": [
        {
          "internalType": "address",
          "name": "newOwner",
          "type": "address"
        }
      ],
      "name": "transferOwnership",
      "outputs": [],
      "stateMutability": "nonpayable",
      "type": "function"
    },
    {
      "inputs": [
        {
          "internalType": "uint256",
          "name": "tokenId",
          "type": "uint256"
        }
      ],
      "name": "userExpires",
      "outputs": [
        {
          "internalType": "uint256",
          "name": "",
          "type": "uint256"
        }
      ],
      "stateMutability": "view",
      "type": "function"
    },
    {
      "inputs": [
        {
          "internalType": "uint256",
          "name": "tokenId",
          "type": "uint256"
        }
      ],
      "name": "userOf",
      "outputs": [
        {
          "internalType": "address",
          "name": "",
          "type": "address"
        }
      ],
      "stateMutability": "view",
      "type": "function"
    },
    {
      "inputs": [
        {
          "internalType": "string",
          "name": "_tokenURI",
          "type": "string"
        }
      ],
      "name": "mint",
      "outputs": [],
      "stateMutability": "nonpayable",
      "type": "function"
    },
    {
      "inputs": [
        {
          "internalType": "uint256",
          "name": "tokenId",
          "type": "uint256"
        }
      ],
      "name": "burn",
      "outputs": [],
      "stateMutability": "nonpayable",
      "type": "function"
    }
  ],
  "bytecode": "0x60806040523480156200001157600080fd5b506040518060400160405280600b81526020017f52656e7461626c654e66740000000000000000000000000000000000000000008152506040518060400160405280600381526020017f43525400000000000000000000000000000000000000000000000000000000008152508181816000908162000091919062000416565b508060019081620000a3919062000416565b5050505050620000c8620000bc620000ce60201b60201c565b620000d660201b60201c565b620004fd565b600033905090565b6000600860009054906101000a900473ffffffffffffffffffffffffffffffffffffffff16905081600860006101000a81548173ffffffffffffffffffffffffffffffffffffffff021916908373ffffffffffffffffffffffffffffffffffffffff1602179055508173ffffffffffffffffffffffffffffffffffffffff168173ffffffffffffffffffffffffffffffffffffffff167f8be0079c531659141344cd1fd0a4f28419497f9722a3daafe3b4186f6b6457e060405160405180910390a35050565b600081519050919050565b7f4e487b7100000000000000000000000000000000000000000000000000000000600052604160045260246000fd5b7f4e487b7100000000000000000000000000000000000000000000000000000000600052602260045260246000fd5b600060028204905060018216806200021e57607f821691505b602082108103620002345762000233620001d6565b5b50919050565b60008190508160005260206000209050919050565b60006020601f8301049050919050565b600082821b905092915050565b6000600883026200029e7fffffffffffffffffffffffffffffffffffffffffffffffffffffffffffffffff826200025f565b620002aa86836200025f565b95508019841693508086168417925050509392505050565b6000819050919050565b6000819050919050565b6000620002f7620002f1620002eb84620002c2565b620002cc565b620002c2565b9050919050565b6000819050919050565b6200031383620002d6565b6200032b6200032282620002fe565b8484546200026c565b825550505050565b600090565b6200034262000333565b6200034f81848462000308565b505050565b5b8181101562000377576200036b60008262000338565b60018101905062000355565b5050565b601f821115620003c65762000390816200023a565b6200039b846200024f565b81016020851015620003ab578190505b620003c3620003ba856200024f565b83018262000354565b50505b505050565b600082821c905092915050565b6000620003eb60001984600802620003cb565b1980831691505092915050565b6000620004068383620003d8565b9150826002028217905092915050565b62000421826200019c565b67ffffffffffffffff8111156200043d576200043c620001a7565b5b62000449825462000205565b620004568282856200037b565b600060209050601f8311600181146200048e576000841562000479578287015190505b620004858582620003f8565b865550620004f5565b601f1984166200049e866200023a565b60005b82811015620004c857848901518255600182019150602085019450602081019050620004a1565b86831015620004e85784890151620004e4601f891682620003d8565b8355505b6001600288020188555050505b505050505050565b61361c806200050d6000396000f3fe608060405234801561001057600080fd5b50600436106101375760003560e01c80638da5cb5b116100b8578063c2f1f14a1161007c578063c2f1f14a14610338578063c87b56dd14610368578063d85d3d2714610398578063e030565e146103b4578063e985e9c5146103d0578063f2fde38b1461040057610137565b80638da5cb5b146102945780638fc88c48146102b257806395d89b41146102e2578063a22cb46514610300578063b88d4fde1461031c57610137565b806342842e0e116100ff57806342842e0e146101f257806342966c681461020e5780636352211e1461022a57806370a082311461025a578063715018a61461028a57610137565b806301ffc9a71461013c57806306fdde031461016c578063081812fc1461018a578063095ea7b3146101ba57806323b872dd146101d6575b600080fd5b610156600480360381019061015191906120e0565b61041c565b6040516101639190612128565b60405180910390f35b610174610496565b60405161018191906121dc565b60405180910390f35b6101a4600480360381019061019f9190612234565b610528565b6040516101b191906122a2565b60405180910390f35b6101d460048036038101906101cf91906122e9565b61056e565b005b6101f060048036038101906101eb9190612329565b610685565b005b61020c60048036038101906102079190612329565b6106e5565b005b61022860048036038101906102239190612234565b610705565b005b610244600480360381019061023f9190612234565b610711565b60405161025191906122a2565b60405180910390f35b610274600480360381019061026f919061237c565b6107c2565b60405161028191906123b8565b60405180910390f35b610292610879565b005b61029c61088d565b6040516102a991906122a2565b60405180910390f35b6102cc60048036038101906102c79190612234565b6108b7565b6040516102d991906123b8565b60405180910390f35b6102ea6108f5565b6040516102f791906121dc565b60405180910390f35b61031a600480360381019061031591906123ff565b610987565b005b61033660048036038101906103319190612574565b61099d565b005b610352600480360381019061034d9190612234565b6109ff565b60405161035f91906122a2565b60405180910390f35b610382600480360381019061037d9190612234565b610a84565b60405161038f91906121dc565b60405180910390f35b6103b260048036038101906103ad9190612698565b610b96565b005b6103ce60048036038101906103c99190612721565b610bce565b005b6103ea60048036038101906103e59190612774565b610cf1565b6040516103f79190612128565b60405180910390f35b61041a6004803603810190610415919061237c565b610d85565b005b60007fad092b5c000000000000000000000000000000000000000000000000000000007bffffffffffffffffffffffffffffffffffffffffffffffffffffffff1916827bffffffffffffffffffffffffffffffffffffffffffffffffffffffff1916148061048f575061048e82610e08565b5b9050919050565b6060600080546104a5906127e3565b80601f01602080910402602001604051908101604052809291908181526020018280546104d1906127e3565b801561051e5780601f106104f35761010080835404028352916020019161051e565b820191906000526020600020905b81548152906001019060200180831161050157829003601f168201915b5050505050905090565b600061053382610eea565b6004600083815260200190815260200160002060009054906101000a900473ffffffffffffffffffffffffffffffffffffffff169050919050565b600061057982610711565b90508073ffffffffffffffffffffffffffffffffffffffff168373ffffffffffffffffffffffffffffffffffffffff16036105e9576040517f08c379a00000000000000000000000000000000000000000000000000000000081526004016105e090612886565b60405180910390fd5b8073ffffffffffffffffffffffffffffffffffffffff16610608610f35565b73ffffffffffffffffffffffffffffffffffffffff161480610637575061063681610631610f35565b610cf1565b5b610676576040517f08c379a000000000000000000000000000000000000000000000000000000000815260040161066d90612918565b60405180910390fd5b6106808383610f3d565b505050565b610696610690610f35565b82610ff6565b6106d5576040517f08c379a00000000000000000000000000000000000000000000000000000000081526004016106cc906129aa565b60405180910390fd5b6106e083838361108b565b505050565b6107008383836040518060200160405280600081525061099d565b505050565b61070e816112f1565b50565b6000806002600084815260200190815260200160002060009054906101000a900473ffffffffffffffffffffffffffffffffffffffff169050600073ffffffffffffffffffffffffffffffffffffffff168173ffffffffffffffffffffffffffffffffffffffff16036107b9576040517f08c379a00000000000000000000000000000000000000000000000000000000081526004016107b090612a16565b60405180910390fd5b80915050919050565b60008073ffffffffffffffffffffffffffffffffffffffff168273ffffffffffffffffffffffffffffffffffffffff1603610832576040517f08c379a000000000000000000000000000000000000000000000000000000000815260040161082990612aa8565b60405180910390fd5b600360008373ffffffffffffffffffffffffffffffffffffffff1673ffffffffffffffffffffffffffffffffffffffff168152602001908152602001600020549050919050565b610881611344565b61088b60006113c2565b565b6000600860009054906101000a900473ffffffffffffffffffffffffffffffffffffffff16905090565b60006007600083815260200190815260200160002060000160149054906101000a900467ffffffffffffffff1667ffffffffffffffff169050919050565b606060018054610904906127e3565b80601f0160208091040260200160405190810160405280929190818152602001828054610930906127e3565b801561097d5780601f106109525761010080835404028352916020019161097d565b820191906000526020600020905b81548152906001019060200180831161096057829003601f168201915b5050505050905090565b610999610992610f35565b8383611488565b5050565b6109ae6109a8610f35565b83610ff6565b6109ed576040517f08c379a00000000000000000000000000000000000000000000000000000000081526004016109e4906129aa565b60405180910390fd5b6109f9848484846115f4565b50505050565b6000426007600084815260200190815260200160002060000160149054906101000a900467ffffffffffffffff1667ffffffffffffffff1610610a7a576007600083815260200190815260200160002060000160009054906101000a900473ffffffffffffffffffffffffffffffffffffffff169050610a7f565b600090505b919050565b6060610a8f82610eea565b6000600660008481526020019081526020016000208054610aaf906127e3565b80601f0160208091040260200160405190810160405280929190818152602001828054610adb906127e3565b8015610b285780601f10610afd57610100808354040283529160200191610b28565b820191906000526020600020905b815481529060010190602001808311610b0b57829003601f168201915b505050505090506000610b39611650565b90506000815103610b4e578192505050610b91565b600082511115610b83578082604051602001610b6b929190612b04565b60405160208183030381529060405292505050610b91565b610b8c84611667565b925050505b919050565b610b9e611344565b610ba860096116cf565b6000610bb460096116e5565b9050610bc033826116f3565b610bca8183611711565b5050565b610bd83384610ff6565b610c17576040517f08c379a0000000000000000000000000000000000000000000000000000000008152600401610c0e90612b9a565b60405180910390fd5b6000600760008581526020019081526020016000209050828160000160006101000a81548173ffffffffffffffffffffffffffffffffffffffff021916908373ffffffffffffffffffffffffffffffffffffffff160217905550818160000160146101000a81548167ffffffffffffffff021916908367ffffffffffffffff1602179055508273ffffffffffffffffffffffffffffffffffffffff16847f4e06b4e7000e659094299b3533b47b6aa8ad048e95e872d23d1f4ee55af89cfe84604051610ce39190612bc9565b60405180910390a350505050565b6000600560008473ffffffffffffffffffffffffffffffffffffffff1673ffffffffffffffffffffffffffffffffffffffff16815260200190815260200160002060008373ffffffffffffffffffffffffffffffffffffffff1673ffffffffffffffffffffffffffffffffffffffff16815260200190815260200160002060009054906101000a900460ff16905092915050565b610d8d611344565b600073ffffffffffffffffffffffffffffffffffffffff168173ffffffffffffffffffffffffffffffffffffffff1603610dfc576040517f08c379a0000000000000000000000000000000000000000000000000000000008152600401610df390612c56565b60405180910390fd5b610e05816113c2565b50565b60007f80ac58cd000000000000000000000000000000000000000000000000000000007bffffffffffffffffffffffffffffffffffffffffffffffffffffffff1916827bffffffffffffffffffffffffffffffffffffffffffffffffffffffff19161480610ed357507f5b5e139f000000000000000000000000000000000000000000000000000000007bffffffffffffffffffffffffffffffffffffffffffffffffffffffff1916827bffffffffffffffffffffffffffffffffffffffffffffffffffffffff1916145b80610ee35750610ee28261177e565b5b9050919050565b610ef3816117e8565b610f32576040517f08c379a0000000000000000000000000000000000000000000000000000000008152600401610f2990612a16565b60405180910390fd5b50565b600033905090565b816004600083815260200190815260200160002060006101000a81548173ffffffffffffffffffffffffffffffffffffffff021916908373ffffffffffffffffffffffffffffffffffffffff160217905550808273ffffffffffffffffffffffffffffffffffffffff16610fb083610711565b73ffffffffffffffffffffffffffffffffffffffff167f8c5be1e5ebec7d5bd14f71427d1e84f3dd0314c0f7b2291e5b200ac8c7c3b92560405160405180910390a45050565b60008061100283610711565b90508073ffffffffffffffffffffffffffffffffffffffff168473ffffffffffffffffffffffffffffffffffffffff16148061104457506110438185610cf1565b5b8061108257508373ffffffffffffffffffffffffffffffffffffffff1661106a84610528565b73ffffffffffffffffffffffffffffffffffffffff16145b91505092915050565b8273ffffffffffffffffffffffffffffffffffffffff166110ab82610711565b73ffffffffffffffffffffffffffffffffffffffff1614611101576040517f08c379a00000000000000000000000000000000000000000000000000000000081526004016110f890612ce8565b60405180910390fd5b600073ffffffffffffffffffffffffffffffffffffffff168273ffffffffffffffffffffffffffffffffffffffff1603611170576040517f08c379a000000000000000000000000000000000000000000000000000000000815260040161116790612d7a565b60405180910390fd5b61117b838383611854565b611186600082610f3d565b6001600360008573ffffffffffffffffffffffffffffffffffffffff1673ffffffffffffffffffffffffffffffffffffffff16815260200190815260200160002060008282546111d69190612dc9565b925050819055506001600360008473ffffffffffffffffffffffffffffffffffffffff1673ffffffffffffffffffffffffffffffffffffffff168152602001908152602001600020600082825461122d9190612dfd565b92505081905550816002600083815260200190815260200160002060006101000a81548173ffffffffffffffffffffffffffffffffffffffff021916908373ffffffffffffffffffffffffffffffffffffffff160217905550808273ffffffffffffffffffffffffffffffffffffffff168473ffffffffffffffffffffffffffffffffffffffff167fddf252ad1be2c89b69c2b068fc378daa952ba7f163c4a11628f55a4df523b3ef60405160405180910390a46112ec8383836119b2565b505050565b6112fa816119b7565b600060066000838152602001908152602001600020805461131a906127e3565b905014611341576006600082815260200190815260200160002060006113409190612017565b5b50565b61134c610f35565b73ffffffffffffffffffffffffffffffffffffffff1661136a61088d565b73ffffffffffffffffffffffffffffffffffffffff16146113c0576040517f08c379a00000000000000000000000000000000000000000000000000000000081526004016113b790612e9f565b60405180910390fd5b565b6000600860009054906101000a900473ffffffffffffffffffffffffffffffffffffffff16905081600860006101000a81548173ffffffffffffffffffffffffffffffffffffffff021916908373ffffffffffffffffffffffffffffffffffffffff1602179055508173ffffffffffffffffffffffffffffffffffffffff168173ffffffffffffffffffffffffffffffffffffffff167f8be0079c531659141344cd1fd0a4f28419497f9722a3daafe3b4186f6b6457e060405160405180910390a35050565b8173ffffffffffffffffffffffffffffffffffffffff168373ffffffffffffffffffffffffffffffffffffffff16036114f6576040517f08c379a00000000000000000000000000000000000000000000000000000000081526004016114ed90612f0b565b60405180910390fd5b80600560008573ffffffffffffffffffffffffffffffffffffffff1673ffffffffffffffffffffffffffffffffffffffff16815260200190815260200160002060008473ffffffffffffffffffffffffffffffffffffffff1673ffffffffffffffffffffffffffffffffffffffff16815260200190815260200160002060006101000a81548160ff0219169083151502179055508173ffffffffffffffffffffffffffffffffffffffff168373ffffffffffffffffffffffffffffffffffffffff167f17307eab39ab6107e8899845ad3d59bd9653f200f220920489ca2b5937696c31836040516115e79190612128565b60405180910390a3505050565b6115ff84848461108b565b61160b84848484611ad4565b61164a576040517f08c379a000000000000000000000000000000000000000000000000000000000815260040161164190612f9d565b60405180910390fd5b50505050565b606060405180602001604052806000815250905090565b606061167282610eea565b600061167c611650565b9050600081511161169c57604051806020016040528060008152506116c7565b806116a684611c5b565b6040516020016116b7929190612b04565b6040516020818303038152906040525b915050919050565b6001816000016000828254019250508190555050565b600081600001549050919050565b61170d828260405180602001604052806000815250611dbb565b5050565b61171a826117e8565b611759576040517f08c379a00000000000000000000000000000000000000000000000000000000081526004016117509061302f565b60405180910390fd5b8060066000848152602001908152602001600020908161177991906131fb565b505050565b60007f01ffc9a7000000000000000000000000000000000000000000000000000000007bffffffffffffffffffffffffffffffffffffffffffffffffffffffff1916827bffffffffffffffffffffffffffffffffffffffffffffffffffffffff1916149050919050565b60008073ffffffffffffffffffffffffffffffffffffffff166002600084815260200190815260200160002060009054906101000a900473ffffffffffffffffffffffffffffffffffffffff1673ffffffffffffffffffffffffffffffffffffffff1614159050919050565b61185f838383611e16565b8173ffffffffffffffffffffffffffffffffffffffff168373ffffffffffffffffffffffffffffffffffffffff16141580156118fe5750600073ffffffffffffffffffffffffffffffffffffffff166007600083815260200190815260200160002060000160009054906101000a900473ffffffffffffffffffffffffffffffffffffffff1673ffffffffffffffffffffffffffffffffffffffff1614155b156119ad5760076000828152602001908152602001600020600080820160006101000a81549073ffffffffffffffffffffffffffffffffffffffff02191690556000820160146101000a81549067ffffffffffffffff02191690555050600073ffffffffffffffffffffffffffffffffffffffff16817f4e06b4e7000e659094299b3533b47b6aa8ad048e95e872d23d1f4ee55af89cfe60006040516119a49190613308565b60405180910390a35b505050565b505050565b60006119c282610711565b90506119d081600084611854565b6119db600083610f3d565b6001600360008373ffffffffffffffffffffffffffffffffffffffff1673ffffffffffffffffffffffffffffffffffffffff1681526020019081526020016000206000828254611a2b9190612dc9565b925050819055506002600083815260200190815260200160002060006101000a81549073ffffffffffffffffffffffffffffffffffffffff021916905581600073ffffffffffffffffffffffffffffffffffffffff168273ffffffffffffffffffffffffffffffffffffffff167fddf252ad1be2c89b69c2b068fc378daa952ba7f163c4a11628f55a4df523b3ef60405160405180910390a4611ad0816000846119b2565b5050565b6000611af58473ffffffffffffffffffffffffffffffffffffffff16611e1b565b15611c4e578373ffffffffffffffffffffffffffffffffffffffff1663150b7a02611b1e610f35565b8786866040518563ffffffff1660e01b8152600401611b409493929190613378565b6020604051808303816000875af1925050508015611b7c57506040513d601f19601f82011682018060405250810190611b7991906133d9565b60015b611bfe573d8060008114611bac576040519150601f19603f3d011682016040523d82523d6000602084013e611bb1565b606091505b506000815103611bf6576040517f08c379a0000000000000000000000000000000000000000000000000000000008152600401611bed90612f9d565b60405180910390fd5b805181602001fd5b63150b7a0260e01b7bffffffffffffffffffffffffffffffffffffffffffffffffffffffff1916817bffffffffffffffffffffffffffffffffffffffffffffffffffffffff191614915050611c53565b600190505b949350505050565b606060008203611ca2576040518060400160405280600181526020017f30000000000000000000000000000000000000000000000000000000000000008152509050611db6565b600082905060005b60008214611cd4578080611cbd90613406565b915050600a82611ccd919061347d565b9150611caa565b60008167ffffffffffffffff811115611cf057611cef612449565b5b6040519080825280601f01601f191660200182016040528015611d225781602001600182028036833780820191505090505b5090505b60008514611daf57600182611d3b9190612dc9565b9150600a85611d4a91906134ae565b6030611d569190612dfd565b60f81b818381518110611d6c57611d6b6134df565b5b60200101907effffffffffffffffffffffffffffffffffffffffffffffffffffffffffffff1916908160001a905350600a85611da8919061347d565b9450611d26565b8093505050505b919050565b611dc58383611e3e565b611dd26000848484611ad4565b611e11576040517f08c379a0000000000000000000000000000000000000000000000000000000008152600401611e0890612f9d565b60405180910390fd5b505050565b505050565b6000808273ffffffffffffffffffffffffffffffffffffffff163b119050919050565b600073ffffffffffffffffffffffffffffffffffffffff168273ffffffffffffffffffffffffffffffffffffffff1603611ead576040517f08c379a0000000000000000000000000000000000000000000000000000000008152600401611ea49061355a565b60405180910390fd5b611eb6816117e8565b15611ef6576040517f08c379a0000000000000000000000000000000000000000000000000000000008152600401611eed906135c6565b60405180910390fd5b611f0260008383611854565b6001600360008473ffffffffffffffffffffffffffffffffffffffff1673ffffffffffffffffffffffffffffffffffffffff1681526020019081526020016000206000828254611f529190612dfd565b92505081905550816002600083815260200190815260200160002060006101000a81548173ffffffffffffffffffffffffffffffffffffffff021916908373ffffffffffffffffffffffffffffffffffffffff160217905550808273ffffffffffffffffffffffffffffffffffffffff16600073ffffffffffffffffffffffffffffffffffffffff167fddf252ad1be2c89b69c2b068fc378daa952ba7f163c4a11628f55a4df523b3ef60405160405180910390a4612013600083836119b2565b5050565b508054612023906127e3565b6000825580601f106120355750612054565b601f0160209004906000526020600020908101906120539190612057565b5b50565b5b80821115612070576000816000905550600101612058565b5090565b6000604051905090565b600080fd5b600080fd5b60007fffffffff0000000000000000000000000000000000000000000000000000000082169050919050565b6120bd81612088565b81146120c857600080fd5b50565b6000813590506120da816120b4565b92915050565b6000602082840312156120f6576120f561207e565b5b6000612104848285016120cb565b91505092915050565b60008115159050919050565b6121228161210d565b82525050565b600060208201905061213d6000830184612119565b92915050565b600081519050919050565b600082825260208201905092915050565b60005b8381101561217d578082015181840152602081019050612162565b8381111561218c576000848401525b50505050565b6000601f19601f8301169050919050565b60006121ae82612143565b6121b8818561214e565b93506121c881856020860161215f565b6121d181612192565b840191505092915050565b600060208201905081810360008301526121f681846121a3565b905092915050565b6000819050919050565b612211816121fe565b811461221c57600080fd5b50565b60008135905061222e81612208565b92915050565b60006020828403121561224a5761224961207e565b5b60006122588482850161221f565b91505092915050565b600073ffffffffffffffffffffffffffffffffffffffff82169050919050565b600061228c82612261565b9050919050565b61229c81612281565b82525050565b60006020820190506122b76000830184612293565b92915050565b6122c681612281565b81146122d157600080fd5b50565b6000813590506122e3816122bd565b92915050565b60008060408385031215612300576122ff61207e565b5b600061230e858286016122d4565b925050602061231f8582860161221f565b9150509250929050565b6000806000606084860312156123425761234161207e565b5b6000612350868287016122d4565b9350506020612361868287016122d4565b92505060406123728682870161221f565b9150509250925092565b6000602082840312156123925761239161207e565b5b60006123a0848285016122d4565b91505092915050565b6123b2816121fe565b82525050565b60006020820190506123cd60008301846123a9565b92915050565b6123dc8161210d565b81146123e757600080fd5b50565b6000813590506123f9816123d3565b92915050565b600080604083850312156124165761241561207e565b5b6000612424858286016122d4565b9250506020612435858286016123ea565b9150509250929050565b600080fd5b600080fd5b7f4e487b7100000000000000000000000000000000000000000000000000000000600052604160045260246000fd5b61248182612192565b810181811067ffffffffffffffff821117156124a05761249f612449565b5b80604052505050565b60006124b3612074565b90506124bf8282612478565b919050565b600067ffffffffffffffff8211156124df576124de612449565b5b6124e882612192565b9050602081019050919050565b82818337600083830152505050565b6000612517612512846124c4565b6124a9565b90508281526020810184848401111561253357612532612444565b5b61253e8482856124f5565b509392505050565b600082601f83011261255b5761255a61243f565b5b813561256b848260208601612504565b91505092915050565b6000806000806080858703121561258e5761258d61207e565b5b600061259c878288016122d4565b94505060206125ad878288016122d4565b93505060406125be8782880161221f565b925050606085013567ffffffffffffffff8111156125df576125de612083565b5b6125eb87828801612546565b91505092959194509250565b600067ffffffffffffffff82111561261257612611612449565b5b61261b82612192565b9050602081019050919050565b600061263b612636846125f7565b6124a9565b90508281526020810184848401111561265757612656612444565b5b6126628482856124f5565b509392505050565b600082601f83011261267f5761267e61243f565b5b813561268f848260208601612628565b91505092915050565b6000602082840312156126ae576126ad61207e565b5b600082013567ffffffffffffffff8111156126cc576126cb612083565b5b6126d88482850161266a565b91505092915050565b600067ffffffffffffffff82169050919050565b6126fe816126e1565b811461270957600080fd5b50565b60008135905061271b816126f5565b92915050565b60008060006060848603121561273a5761273961207e565b5b60006127488682870161221f565b9350506020612759868287016122d4565b925050604061276a8682870161270c565b9150509250925092565b6000806040838503121561278b5761278a61207e565b5b6000612799858286016122d4565b92505060206127aa858286016122d4565b9150509250929050565b7f4e487b7100000000000000000000000000000000000000000000000000000000600052602260045260246000fd5b600060028204905060018216806127fb57607f821691505b60208210810361280e5761280d6127b4565b5b50919050565b7f4552433732313a20617070726f76616c20746f2063757272656e74206f776e6560008201527f7200000000000000000000000000000000000000000000000000000000000000602082015250565b600061287060218361214e565b915061287b82612814565b604082019050919050565b6000602082019050818103600083015261289f81612863565b9050919050565b7f4552433732313a20617070726f76652063616c6c6572206973206e6f7420746f60008201527f6b656e206f776e6572206e6f7220617070726f76656420666f7220616c6c0000602082015250565b6000612902603e8361214e565b915061290d826128a6565b604082019050919050565b60006020820190508181036000830152612931816128f5565b9050919050565b7f4552433732313a2063616c6c6572206973206e6f7420746f6b656e206f776e6560008201527f72206e6f7220617070726f766564000000000000000000000000000000000000602082015250565b6000612994602e8361214e565b915061299f82612938565b604082019050919050565b600060208201905081810360008301526129c381612987565b9050919050565b7f4552433732313a20696e76616c696420746f6b656e2049440000000000000000600082015250565b6000612a0060188361214e565b9150612a0b826129ca565b602082019050919050565b60006020820190508181036000830152612a2f816129f3565b9050919050565b7f4552433732313a2061646472657373207a65726f206973206e6f74206120766160008201527f6c6964206f776e65720000000000000000000000000000000000000000000000602082015250565b6000612a9260298361214e565b9150612a9d82612a36565b604082019050919050565b60006020820190508181036000830152612ac181612a85565b9050919050565b600081905092915050565b6000612ade82612143565b612ae88185612ac8565b9350612af881856020860161215f565b80840191505092915050565b6000612b108285612ad3565b9150612b1c8284612ad3565b91508190509392505050565b7f4552433732313a207472616e736665722063616c6c6572206973206e6f74206f60008201527f776e6572206e6f7220617070726f766564000000000000000000000000000000602082015250565b6000612b8460318361214e565b9150612b8f82612b28565b604082019050919050565b60006020820190508181036000830152612bb381612b77565b9050919050565b612bc3816126e1565b82525050565b6000602082019050612bde6000830184612bba565b92915050565b7f4f776e61626c653a206e6577206f776e657220697320746865207a65726f206160008201527f6464726573730000000000000000000000000000000000000000000000000000602082015250565b6000612c4060268361214e565b9150612c4b82612be4565b604082019050919050565b60006020820190508181036000830152612c6f81612c33565b9050919050565b7f4552433732313a207472616e736665722066726f6d20696e636f72726563742060008201527f6f776e6572000000000000000000000000000000000000000000000000000000602082015250565b6000612cd260258361214e565b9150612cdd82612c76565b604082019050919050565b60006020820190508181036000830152612d0181612cc5565b9050919050565b7f4552433732313a207472616e7366657220746f20746865207a65726f2061646460008201527f7265737300000000000000000000000000000000000000000000000000000000602082015250565b6000612d6460248361214e565b9150612d6f82612d08565b604082019050919050565b60006020820190508181036000830152612d9381612d57565b9050919050565b7f4e487b7100000000000000000000000000000000000000000000000000000000600052601160045260246000fd5b6000612dd4826121fe565b9150612ddf836121fe565b925082821015612df257612df1612d9a565b5b828203905092915050565b6000612e08826121fe565b9150612e13836121fe565b9250827fffffffffffffffffffffffffffffffffffffffffffffffffffffffffffffffff03821115612e4857612e47612d9a565b5b828201905092915050565b7f4f776e61626c653a2063616c6c6572206973206e6f7420746865206f776e6572600082015250565b6000612e8960208361214e565b9150612e9482612e53565b602082019050919050565b60006020820190508181036000830152612eb881612e7c565b9050919050565b7f4552433732313a20617070726f766520746f2063616c6c657200000000000000600082015250565b6000612ef560198361214e565b9150612f0082612ebf565b602082019050919050565b60006020820190508181036000830152612f2481612ee8565b9050919050565b7f4552433732313a207472616e7366657220746f206e6f6e20455243373231526560008201527f63656976657220696d706c656d656e7465720000000000000000000000000000602082015250565b6000612f8760328361214e565b9150612f9282612f2b565b604082019050919050565b60006020820190508181036000830152612fb681612f7a565b9050919050565b7f45524337323155524953746f726167653a2055524920736574206f66206e6f6e60008201527f6578697374656e7420746f6b656e000000000000000000000000000000000000602082015250565b6000613019602e8361214e565b915061302482612fbd565b604082019050919050565b600060208201905081810360008301526130488161300c565b9050919050565b60008190508160005260206000209050919050565b60006020601f8301049050919050565b600082821b905092915050565b6000600883026130b17fffffffffffffffffffffffffffffffffffffffffffffffffffffffffffffffff82613074565b6130bb8683613074565b95508019841693508086168417925050509392505050565b6000819050919050565b60006130f86130f36130ee846121fe565b6130d3565b6121fe565b9050919050565b6000819050919050565b613112836130dd565b61312661311e826130ff565b848454613081565b825550505050565b600090565b61313b61312e565b613146818484613109565b505050565b5b8181101561316a5761315f600082613133565b60018101905061314c565b5050565b601f8211156131af576131808161304f565b61318984613064565b81016020851015613198578190505b6131ac6131a485613064565b83018261314b565b50505b505050565b600082821c905092915050565b60006131d2600019846008026131b4565b1980831691505092915050565b60006131eb83836131c1565b9150826002028217905092915050565b61320482612143565b67ffffffffffffffff81111561321d5761321c612449565b5b61322782546127e3565b61323282828561316e565b600060209050601f8311600181146132655760008415613253578287015190505b61325d85826131df565b8655506132c5565b601f1984166132738661304f565b60005b8281101561329b57848901518255600182019150602085019450602081019050613276565b868310156132b857848901516132b4601f8916826131c1565b8355505b6001600288020188555050505b505050505050565b6000819050919050565b60006132f26132ed6132e8846132cd565b6130d3565b6126e1565b9050919050565b613302816132d7565b82525050565b600060208201905061331d60008301846132f9565b92915050565b600081519050919050565b600082825260208201905092915050565b600061334a82613323565b613354818561332e565b935061336481856020860161215f565b61336d81612192565b840191505092915050565b600060808201905061338d6000830187612293565b61339a6020830186612293565b6133a760408301856123a9565b81810360608301526133b9818461333f565b905095945050505050565b6000815190506133d3816120b4565b92915050565b6000602082840312156133ef576133ee61207e565b5b60006133fd848285016133c4565b91505092915050565b6000613411826121fe565b91507fffffffffffffffffffffffffffffffffffffffffffffffffffffffffffffffff820361344357613442612d9a565b5b600182019050919050565b7f4e487b7100000000000000000000000000000000000000000000000000000000600052601260045260246000fd5b6000613488826121fe565b9150613493836121fe565b9250826134a3576134a261344e565b5b828204905092915050565b60006134b9826121fe565b91506134c4836121fe565b9250826134d4576134d361344e565b5b828206905092915050565b7f4e487b7100000000000000000000000000000000000000000000000000000000600052603260045260246000fd5b7f4552433732313a206d696e7420746f20746865207a65726f2061646472657373600082015250565b600061354460208361214e565b915061354f8261350e565b602082019050919050565b6000602082019050818103600083015261357381613537565b9050919050565b7f4552433732313a20746f6b656e20616c7265616479206d696e74656400000000600082015250565b60006135b0601c8361214e565b91506135bb8261357a565b602082019050919050565b600060208201905081810360008301526135df816135a3565b905091905056fea264697066735822122071ef7fea8cfad0f92db9a0f7bc0cfbdfb27a01e853a3d0ea488795cc6978ac5164736f6c634300080f0033",
  "immutableReferences": {},
  "source": "// SPDX-License-Identifier: MIT\npragma solidity >=0.4.22 <0.9.0;\nimport \"./ERC4907.sol\";\nimport \"@openzeppelin/contracts/utils/Counters.sol\";\nimport \"@openzeppelin/contracts/access/Ownable.sol\";\n\n\ncontract Rent is ERC4907, Ownable {\n  using Counters for Counters.Counter;\n  Counters.Counter private _tokenIds;\n  constructor() ERC4907(\"RentableNft\",\"CRT\") {\n  }\n\n  function mint(string memory _tokenURI) public onlyOwner {\n    _tokenIds.increment(); //incrementa el token cada vez que se mintea\n    uint256 newTokenId = _tokenIds.current();\n    _safeMint(msg.sender, newTokenId);\n    _setTokenURI(newTokenId, _tokenURI);\n\n  }\n\n  function burn(uint256 tokenId)public {\n    _burn(tokenId);\n  }\n}\n",
  "sourcePath": "C:\\NftErc4907\\rentable\\contracts\\Rent.sol",
  "compiler": {
    "name": "solc",
    "version": "0.8.15+commit.e14f2714.Emscripten.clang"
  },
  "schemaVersion": "3.4.9",
  "updatedAt": "2022-08-24T21:05:30.977Z",
  "devdoc": {
    "kind": "dev",
    "methods": {
      "approve(address,uint256)": {
        "details": "See {IERC721-approve}."
      },
      "balanceOf(address)": {
        "details": "See {IERC721-balanceOf}."
      },
      "getApproved(uint256)": {
        "details": "See {IERC721-getApproved}."
      },
      "isApprovedForAll(address,address)": {
        "details": "See {IERC721-isApprovedForAll}."
      },
      "name()": {
        "details": "See {IERC721Metadata-name}."
      },
      "owner()": {
        "details": "Returns the address of the current owner."
      },
      "ownerOf(uint256)": {
        "details": "See {IERC721-ownerOf}."
      },
      "renounceOwnership()": {
        "details": "Leaves the contract without owner. It will not be possible to call `onlyOwner` functions anymore. Can only be called by the current owner. NOTE: Renouncing ownership will leave the contract without an owner, thereby removing any functionality that is only available to the owner."
      },
      "safeTransferFrom(address,address,uint256)": {
        "details": "See {IERC721-safeTransferFrom}."
      },
      "safeTransferFrom(address,address,uint256,bytes)": {
        "details": "See {IERC721-safeTransferFrom}."
      },
      "setApprovalForAll(address,bool)": {
        "details": "See {IERC721-setApprovalForAll}."
      },
      "setUser(uint256,address,uint64)": {
        "details": "The zero address indicates there is no user  Throws if `tokenId` is not valid NFT",
        "params": {
          "expires": "UNIX timestamp, The new user could use the NFT before expires",
          "user": "The new user of the NFT"
        }
      },
      "supportsInterface(bytes4)": {
        "details": "See {IERC165-supportsInterface}."
      },
      "symbol()": {
        "details": "See {IERC721Metadata-symbol}."
      },
      "tokenURI(uint256)": {
        "details": "See {IERC721Metadata-tokenURI}."
      },
      "transferFrom(address,address,uint256)": {
        "details": "See {IERC721-transferFrom}."
      },
      "transferOwnership(address)": {
        "details": "Transfers ownership of the contract to a new account (`newOwner`). Can only be called by the current owner."
      },
      "userExpires(uint256)": {
        "details": "The zero value indicates that there is no user ",
        "params": {
          "tokenId": "The NFT to get the user expires for"
        },
        "returns": {
          "_0": "The user expires for this NFT"
        }
      },
      "userOf(uint256)": {
        "details": "The zero address indicates that there is no user or the user is expired",
        "params": {
          "tokenId": "The NFT to get the user address for"
        },
        "returns": {
          "_0": "The user address for this NFT"
        }
      }
    },
    "version": 1
  },
  "userdoc": {
    "events": {
      "UpdateUser(uint256,address,uint64)": {
        "notice": "Emitted when the `user` of an NFT or the `expires` of the `user` is changed The zero address for user indicates that there is no user address"
      }
    },
    "kind": "user",
    "methods": {
      "setUser(uint256,address,uint64)": {
        "notice": "set the user and expires of a NFT"
      },
      "userExpires(uint256)": {
        "notice": "Get the user expires of an NFT"
      },
      "userOf(uint256)": {
        "notice": "Get the user address of an NFT"
      }
    },
    "version": 1
  }
}